{
  "_format": "hh-sol-artifact-1",
  "contractName": "VotingSystem",
  "sourceName": "contracts/VotingSystem.sol",
  "abi": [
    {
      "inputs": [
        {
          "internalType": "address",
          "name": "_tokenAddress",
          "type": "address"
        }
      ],
      "stateMutability": "nonpayable",
      "type": "constructor"
    },
    {
      "anonymous": false,
      "inputs": [
        {
          "indexed": false,
          "internalType": "uint256",
          "name": "proposalId",
          "type": "uint256"
        },
        {
          "indexed": false,
          "internalType": "address",
          "name": "evaluator",
          "type": "address"
        },
        {
          "indexed": false,
          "internalType": "int8",
          "name": "rating",
          "type": "int8"
        }
      ],
      "name": "Evaluated",
      "type": "event"
    },
    {
      "anonymous": false,
      "inputs": [
        {
          "indexed": false,
          "internalType": "uint256",
          "name": "proposalId",
          "type": "uint256"
        },
        {
          "indexed": false,
          "internalType": "address",
          "name": "creator",
          "type": "address"
        },
        {
          "indexed": false,
          "internalType": "string",
          "name": "title",
          "type": "string"
        }
      ],
      "name": "ProposalCreated",
      "type": "event"
    },
    {
      "anonymous": false,
      "inputs": [
        {
          "indexed": false,
          "internalType": "uint256",
          "name": "proposalId",
          "type": "uint256"
        },
        {
          "indexed": false,
          "internalType": "address",
          "name": "voter",
          "type": "address"
        },
        {
          "indexed": false,
          "internalType": "bool",
          "name": "support",
          "type": "bool"
        }
      ],
      "name": "Voted",
      "type": "event"
    },
    {
      "inputs": [
        {
          "internalType": "string",
          "name": "_title",
          "type": "string"
        },
        {
          "internalType": "string",
          "name": "_description",
          "type": "string"
        }
      ],
      "name": "createProposal",
      "outputs": [],
      "stateMutability": "nonpayable",
      "type": "function"
    },
    {
      "inputs": [
        {
          "internalType": "uint256",
          "name": "_proposalId",
          "type": "uint256"
        },
        {
          "internalType": "int8",
          "name": "_rating",
          "type": "int8"
        }
      ],
      "name": "evaluateProposal",
      "outputs": [],
      "stateMutability": "nonpayable",
      "type": "function"
    },
    {
      "inputs": [
        {
          "internalType": "uint256",
          "name": "_proposalId",
          "type": "uint256"
        }
      ],
      "name": "getProposalDetails",
      "outputs": [
        {
          "internalType": "address",
          "name": "creator",
          "type": "address"
        },
        {
          "internalType": "string",
          "name": "title",
          "type": "string"
        },
        {
          "internalType": "string",
          "name": "description",
          "type": "string"
        },
        {
          "internalType": "uint256",
          "name": "votesFor",
          "type": "uint256"
        },
        {
          "internalType": "uint256",
          "name": "votesAgainst",
          "type": "uint256"
        }
      ],
      "stateMutability": "view",
      "type": "function"
    },
    {
      "inputs": [],
      "name": "proposalCount",
      "outputs": [
        {
          "internalType": "uint256",
          "name": "",
          "type": "uint256"
        }
      ],
      "stateMutability": "view",
      "type": "function"
    },
    {
      "inputs": [
        {
          "internalType": "uint256",
          "name": "",
          "type": "uint256"
        }
      ],
      "name": "proposals",
      "outputs": [
        {
          "internalType": "address",
          "name": "creator",
          "type": "address"
        },
        {
          "internalType": "string",
          "name": "title",
          "type": "string"
        },
        {
          "internalType": "string",
          "name": "description",
          "type": "string"
        },
        {
          "internalType": "uint256",
          "name": "votesFor",
          "type": "uint256"
        },
        {
          "internalType": "uint256",
          "name": "votesAgainst",
          "type": "uint256"
        },
        {
          "internalType": "bool",
          "name": "exists",
          "type": "bool"
        }
      ],
      "stateMutability": "view",
      "type": "function"
    },
    {
      "inputs": [
        {
          "internalType": "uint256",
          "name": "_proposalId",
          "type": "uint256"
        },
        {
          "internalType": "bool",
          "name": "_support",
          "type": "bool"
        }
      ],
      "name": "vote",
      "outputs": [],
      "stateMutability": "nonpayable",
      "type": "function"
    },
    {
      "inputs": [],
      "name": "votingToken",
      "outputs": [
        {
          "internalType": "contract VotingToken",
          "name": "",
          "type": "address"
        }
      ],
      "stateMutability": "view",
      "type": "function"
    }
  ],
  "bytecode": "0x60806040523480156200001157600080fd5b50604051620018e2380380620018e28339818101604052810190620000379190620000e8565b806000806101000a81548173ffffffffffffffffffffffffffffffffffffffff021916908373ffffffffffffffffffffffffffffffffffffffff160217905550506200011a565b600080fd5b600073ffffffffffffffffffffffffffffffffffffffff82169050919050565b6000620000b08262000083565b9050919050565b620000c281620000a3565b8114620000ce57600080fd5b50565b600081519050620000e281620000b7565b92915050565b6000602082840312156200010157620001006200007e565b5b60006200011184828501620000d1565b91505092915050565b6117b8806200012a6000396000f3fe608060405234801561001057600080fd5b506004361061007d5760003560e01c806365e481e21161005b57806365e481e214610107578063b034012314610123578063c9d27afe14610141578063da35c6641461015d5761007d565b8063013cf08b1461008257806302d84bdd146100b75780633b4d01a7146100d3575b600080fd5b61009c60048036038101906100979190610c26565b61017b565b6040516100ae96959493929190610d4e565b60405180910390f35b6100d160048036038101906100cc9190610df6565b6102f4565b005b6100ed60048036038101906100e89190610c26565b61062e565b6040516100fe959493929190610e36565b60405180910390f35b610121600480360381019061011c9190610fcc565b6107b0565b005b61012b610932565b60405161013891906110a3565b60405180910390f35b61015b600480360381019061015691906110ea565b610956565b005b610165610bd6565b604051610172919061112a565b60405180910390f35b60016020528060005260406000206000915090508060000160009054906101000a900473ffffffffffffffffffffffffffffffffffffffff16908060010180546101c490611174565b80601f01602080910402602001604051908101604052809291908181526020018280546101f090611174565b801561023d5780601f106102125761010080835404028352916020019161023d565b820191906000526020600020905b81548152906001019060200180831161022057829003601f168201915b50505050509080600201805461025290611174565b80601f016020809104026020016040519081016040528092919081815260200182805461027e90611174565b80156102cb5780601f106102a0576101008083540402835291602001916102cb565b820191906000526020600020905b8154815290600101906020018083116102ae57829003601f168201915b5050505050908060030154908060040154908060070160009054906101000a900460ff16905086565b6001600083815260200190815260200160002060070160009054906101000a900460ff16610357576040517f08c379a000000000000000000000000000000000000000000000000000000000815260040161034e906111f1565b60405180910390fd5b7ffffffffffffffffffffffffffffffffffffffffffffffffffffffffffffffffb8160000b1215801561038e575060058160000b13155b6103cd576040517f08c379a00000000000000000000000000000000000000000000000000000000081526004016103c49061125d565b60405180910390fd5b60006001600084815260200190815260200160002090508060050160003373ffffffffffffffffffffffffffffffffffffffff1673ffffffffffffffffffffffffffffffffffffffff16815260200190815260200160002060009054906101000a900460ff16610472576040517f08c379a0000000000000000000000000000000000000000000000000000000008152600401610469906112c9565b60405180910390fd5b60008160060160003373ffffffffffffffffffffffffffffffffffffffff1673ffffffffffffffffffffffffffffffffffffffff16815260200190815260200160002060009054906101000a900460000b60000b14610506576040517f08c379a00000000000000000000000000000000000000000000000000000000081526004016104fd90611335565b60405180910390fd5b818160060160003373ffffffffffffffffffffffffffffffffffffffff1673ffffffffffffffffffffffffffffffffffffffff16815260200190815260200160002060006101000a81548160ff021916908360000b60ff16021790555060008054906101000a900473ffffffffffffffffffffffffffffffffffffffff1673ffffffffffffffffffffffffffffffffffffffff166330a80f07336040518263ffffffff1660e01b81526004016105bc9190611355565b600060405180830381600087803b1580156105d657600080fd5b505af11580156105ea573d6000803e3d6000fd5b505050507f1b58851fec35e57d778c199afba0f927006ffc41403a5cfb52851fa53c2658708333846040516106219392919061137f565b60405180910390a1505050565b600060608060008060006001600088815260200190815260200160002090508060000160009054906101000a900473ffffffffffffffffffffffffffffffffffffffff1681600101826002018360030154846004015483805461069090611174565b80601f01602080910402602001604051908101604052809291908181526020018280546106bc90611174565b80156107095780601f106106de57610100808354040283529160200191610709565b820191906000526020600020905b8154815290600101906020018083116106ec57829003601f168201915b5050505050935082805461071c90611174565b80601f016020809104026020016040519081016040528092919081815260200182805461074890611174565b80156107955780601f1061076a57610100808354040283529160200191610795565b820191906000526020600020905b81548152906001019060200180831161077857829003601f168201915b50505050509250955095509550955095505091939590929450565b600260008154809291906107c3906113e5565b919050555060006001600060025481526020019081526020016000209050338160000160006101000a81548173ffffffffffffffffffffffffffffffffffffffff021916908373ffffffffffffffffffffffffffffffffffffffff1602179055508281600101908161083591906115cf565b508181600201908161084791906115cf565b5060018160070160006101000a81548160ff02191690831515021790555060008054906101000a900473ffffffffffffffffffffffffffffffffffffffff1673ffffffffffffffffffffffffffffffffffffffff166347180441336040518263ffffffff1660e01b81526004016108be9190611355565b600060405180830381600087803b1580156108d857600080fd5b505af11580156108ec573d6000803e3d6000fd5b505050507f7585f467599d0f008985f231af99293be388626ac16ca59505c2f8f88969cd636002543385604051610925939291906116a1565b60405180910390a1505050565b60008054906101000a900473ffffffffffffffffffffffffffffffffffffffff1681565b6001600083815260200190815260200160002060070160009054906101000a900460ff166109b9576040517f08c379a00000000000000000000000000000000000000000000000000000000081526004016109b0906111f1565b60405180910390fd5b6001600083815260200190815260200160002060050160003373ffffffffffffffffffffffffffffffffffffffff1673ffffffffffffffffffffffffffffffffffffffff16815260200190815260200160002060009054906101000a900460ff1615610a5a576040517f08c379a0000000000000000000000000000000000000000000000000000000008152600401610a519061172b565b60405180910390fd5b600060016000848152602001908152602001600020905060018160050160003373ffffffffffffffffffffffffffffffffffffffff1673ffffffffffffffffffffffffffffffffffffffff16815260200190815260200160002060006101000a81548160ff0219169083151502179055508115610af057806003016000815480929190610ae6906113e5565b9190505550610b0b565b806004016000815480929190610b05906113e5565b91905055505b60008054906101000a900473ffffffffffffffffffffffffffffffffffffffff1673ffffffffffffffffffffffffffffffffffffffff1663a357bfd5336040518263ffffffff1660e01b8152600401610b649190611355565b600060405180830381600087803b158015610b7e57600080fd5b505af1158015610b92573d6000803e3d6000fd5b505050507ff2913dbe661ee2acc4a046d8fbcdc792373bda34c41c6086484b5345e5785e5f833384604051610bc99392919061174b565b60405180910390a1505050565b60025481565b6000604051905090565b600080fd5b600080fd5b6000819050919050565b610c0381610bf0565b8114610c0e57600080fd5b50565b600081359050610c2081610bfa565b92915050565b600060208284031215610c3c57610c3b610be6565b5b6000610c4a84828501610c11565b91505092915050565b600073ffffffffffffffffffffffffffffffffffffffff82169050919050565b6000610c7e82610c53565b9050919050565b610c8e81610c73565b82525050565b600081519050919050565b600082825260208201905092915050565b60005b83811015610cce578082015181840152602081019050610cb3565b60008484015250505050565b6000601f19601f8301169050919050565b6000610cf682610c94565b610d008185610c9f565b9350610d10818560208601610cb0565b610d1981610cda565b840191505092915050565b610d2d81610bf0565b82525050565b60008115159050919050565b610d4881610d33565b82525050565b600060c082019050610d636000830189610c85565b8181036020830152610d758188610ceb565b90508181036040830152610d898187610ceb565b9050610d986060830186610d24565b610da56080830185610d24565b610db260a0830184610d3f565b979650505050505050565b60008160000b9050919050565b610dd381610dbd565b8114610dde57600080fd5b50565b600081359050610df081610dca565b92915050565b60008060408385031215610e0d57610e0c610be6565b5b6000610e1b85828601610c11565b9250506020610e2c85828601610de1565b9150509250929050565b600060a082019050610e4b6000830188610c85565b8181036020830152610e5d8187610ceb565b90508181036040830152610e718186610ceb565b9050610e806060830185610d24565b610e8d6080830184610d24565b9695505050505050565b600080fd5b600080fd5b7f4e487b7100000000000000000000000000000000000000000000000000000000600052604160045260246000fd5b610ed982610cda565b810181811067ffffffffffffffff82111715610ef857610ef7610ea1565b5b80604052505050565b6000610f0b610bdc565b9050610f178282610ed0565b919050565b600067ffffffffffffffff821115610f3757610f36610ea1565b5b610f4082610cda565b9050602081019050919050565b82818337600083830152505050565b6000610f6f610f6a84610f1c565b610f01565b905082815260208101848484011115610f8b57610f8a610e9c565b5b610f96848285610f4d565b509392505050565b600082601f830112610fb357610fb2610e97565b5b8135610fc3848260208601610f5c565b91505092915050565b60008060408385031215610fe357610fe2610be6565b5b600083013567ffffffffffffffff81111561100157611000610beb565b5b61100d85828601610f9e565b925050602083013567ffffffffffffffff81111561102e5761102d610beb565b5b61103a85828601610f9e565b9150509250929050565b6000819050919050565b600061106961106461105f84610c53565b611044565b610c53565b9050919050565b600061107b8261104e565b9050919050565b600061108d82611070565b9050919050565b61109d81611082565b82525050565b60006020820190506110b86000830184611094565b92915050565b6110c781610d33565b81146110d257600080fd5b50565b6000813590506110e4816110be565b92915050565b6000806040838503121561110157611100610be6565b5b600061110f85828601610c11565b9250506020611120858286016110d5565b9150509250929050565b600060208201905061113f6000830184610d24565b92915050565b7f4e487b7100000000000000000000000000000000000000000000000000000000600052602260045260246000fd5b6000600282049050600182168061118c57607f821691505b60208210810361119f5761119e611145565b5b50919050565b7f50726f706f73616c20646f6573206e6f74206578697374000000000000000000600082015250565b60006111db601783610c9f565b91506111e6826111a5565b602082019050919050565b6000602082019050818103600083015261120a816111ce565b9050919050565b7f526174696e67206d757374206265206265747765656e202d3520616e64203500600082015250565b6000611247601f83610c9f565b915061125282611211565b602082019050919050565b600060208201905081810360008301526112768161123a565b9050919050565b7f4d75737420766f7465206265666f7265206576616c756174696e670000000000600082015250565b60006112b3601b83610c9f565b91506112be8261127d565b602082019050919050565b600060208201905081810360008301526112e2816112a6565b9050919050565b7f416c7265616479206576616c7561746564000000000000000000000000000000600082015250565b600061131f601183610c9f565b915061132a826112e9565b602082019050919050565b6000602082019050818103600083015261134e81611312565b9050919050565b600060208201905061136a6000830184610c85565b92915050565b61137981610dbd565b82525050565b60006060820190506113946000830186610d24565b6113a16020830185610c85565b6113ae6040830184611370565b949350505050565b7f4e487b7100000000000000000000000000000000000000000000000000000000600052601160045260246000fd5b60006113f082610bf0565b91507fffffffffffffffffffffffffffffffffffffffffffffffffffffffffffffffff8203611422576114216113b6565b5b600182019050919050565b60008190508160005260206000209050919050565b60006020601f8301049050919050565b600082821b905092915050565b60006008830261148f7fffffffffffffffffffffffffffffffffffffffffffffffffffffffffffffffff82611452565b6114998683611452565b95508019841693508086168417925050509392505050565b60006114cc6114c76114c284610bf0565b611044565b610bf0565b9050919050565b6000819050919050565b6114e6836114b1565b6114fa6114f2826114d3565b84845461145f565b825550505050565b600090565b61150f611502565b61151a8184846114dd565b505050565b5b8181101561153e57611533600082611507565b600181019050611520565b5050565b601f821115611583576115548161142d565b61155d84611442565b8101602085101561156c578190505b61158061157885611442565b83018261151f565b50505b505050565b600082821c905092915050565b60006115a660001984600802611588565b1980831691505092915050565b60006115bf8383611595565b9150826002028217905092915050565b6115d882610c94565b67ffffffffffffffff8111156115f1576115f0610ea1565b5b6115fb8254611174565b611606828285611542565b600060209050601f8311600181146116395760008415611627578287015190505b61163185826115b3565b865550611699565b601f1984166116478661142d565b60005b8281101561166f5784890151825560018201915060208501945060208101905061164a565b8683101561168c5784890151611688601f891682611595565b8355505b6001600288020188555050505b505050505050565b60006060820190506116b66000830186610d24565b6116c36020830185610c85565b81810360408301526116d58184610ceb565b9050949350505050565b7f416c726561647920766f74656400000000000000000000000000000000000000600082015250565b6000611715600d83610c9f565b9150611720826116df565b602082019050919050565b6000602082019050818103600083015261174481611708565b9050919050565b60006060820190506117606000830186610d24565b61176d6020830185610c85565b61177a6040830184610d3f565b94935050505056fea2646970667358221220fdbe59ae0893f64bd4bd33f082e13c07c60836705069ee1766be156ef6522b0564736f6c63430008140033",
  "linkReferences": {},
  "deployedLinkReferences": {}
}