{
  "_format": "hh-sol-artifact-1",
  "contractName": "VotingSystem",
  "sourceName": "contracts/VotingSystem.sol",
  "abi": [
    {
      "inputs": [
        {
          "internalType": "address",
          "name": "_tokenAddress",
          "type": "address"
        }
      ],
      "stateMutability": "nonpayable",
      "type": "constructor"
    },
    {
      "anonymous": false,
      "inputs": [
        {
          "indexed": false,
          "internalType": "uint256",
          "name": "proposalId",
          "type": "uint256"
        },
        {
          "indexed": false,
          "internalType": "address",
          "name": "evaluator",
          "type": "address"
        },
        {
          "indexed": false,
          "internalType": "int8",
          "name": "rating",
          "type": "int8"
        }
      ],
      "name": "Evaluated",
      "type": "event"
    },
    {
      "anonymous": false,
      "inputs": [
        {
          "indexed": false,
          "internalType": "uint256",
          "name": "proposalId",
          "type": "uint256"
        },
        {
          "indexed": false,
          "internalType": "address",
          "name": "creator",
          "type": "address"
        },
        {
          "indexed": false,
          "internalType": "string",
          "name": "title",
          "type": "string"
        },
        {
          "indexed": false,
          "internalType": "bool",
          "name": "isCustomVoting",
          "type": "bool"
        }
      ],
      "name": "ProposalCreated",
      "type": "event"
    },
    {
      "anonymous": false,
      "inputs": [
        {
          "indexed": false,
          "internalType": "uint256",
          "name": "proposalId",
          "type": "uint256"
        },
        {
          "indexed": false,
          "internalType": "address",
          "name": "voter",
          "type": "address"
        },
        {
          "indexed": false,
          "internalType": "uint256",
          "name": "optionIndex",
          "type": "uint256"
        }
      ],
      "name": "Voted",
      "type": "event"
    },
    {
      "inputs": [
        {
          "internalType": "string",
          "name": "_title",
          "type": "string"
        },
        {
          "internalType": "string",
          "name": "_description",
          "type": "string"
        },
        {
          "internalType": "string[]",
          "name": "_options",
          "type": "string[]"
        }
      ],
      "name": "createProposal",
      "outputs": [],
      "stateMutability": "nonpayable",
      "type": "function"
    },
    {
      "inputs": [
        {
          "internalType": "uint256",
          "name": "_proposalId",
          "type": "uint256"
        },
        {
          "internalType": "int8",
          "name": "_rating",
          "type": "int8"
        }
      ],
      "name": "evaluateProposal",
      "outputs": [],
      "stateMutability": "nonpayable",
      "type": "function"
    },
    {
      "inputs": [
        {
          "internalType": "uint256",
          "name": "_proposalId",
          "type": "uint256"
        }
      ],
      "name": "getProposalDetails",
      "outputs": [
        {
          "internalType": "address",
          "name": "creator",
          "type": "address"
        },
        {
          "internalType": "string",
          "name": "title",
          "type": "string"
        },
        {
          "internalType": "string",
          "name": "description",
          "type": "string"
        },
        {
          "internalType": "bool",
          "name": "isCustomVoting",
          "type": "bool"
        },
        {
          "components": [
            {
              "internalType": "string",
              "name": "text",
              "type": "string"
            },
            {
              "internalType": "uint256",
              "name": "votes",
              "type": "uint256"
            }
          ],
          "internalType": "struct VotingSystem.Option[]",
          "name": "options",
          "type": "tuple[]"
        }
      ],
      "stateMutability": "view",
      "type": "function"
    },
    {
      "inputs": [],
      "name": "proposalCount",
      "outputs": [
        {
          "internalType": "uint256",
          "name": "",
          "type": "uint256"
        }
      ],
      "stateMutability": "view",
      "type": "function"
    },
    {
      "inputs": [
        {
          "internalType": "uint256",
          "name": "",
          "type": "uint256"
        }
      ],
      "name": "proposals",
      "outputs": [
        {
          "internalType": "address",
          "name": "creator",
          "type": "address"
        },
        {
          "internalType": "string",
          "name": "title",
          "type": "string"
        },
        {
          "internalType": "string",
          "name": "description",
          "type": "string"
        },
        {
          "internalType": "bool",
          "name": "exists",
          "type": "bool"
        },
        {
          "internalType": "bool",
          "name": "isCustomVoting",
          "type": "bool"
        }
      ],
      "stateMutability": "view",
      "type": "function"
    },
    {
      "inputs": [
        {
          "internalType": "uint256",
          "name": "_proposalId",
          "type": "uint256"
        },
        {
          "internalType": "uint256",
          "name": "_optionIndex",
          "type": "uint256"
        }
      ],
      "name": "vote",
      "outputs": [],
      "stateMutability": "nonpayable",
      "type": "function"
    },
    {
      "inputs": [],
      "name": "votingToken",
      "outputs": [
        {
          "internalType": "contract VotingToken",
          "name": "",
          "type": "address"
        }
      ],
      "stateMutability": "view",
      "type": "function"
    }
  ],
  "bytecode": "0x60806040523480156200001157600080fd5b50604051620020aa380380620020aa8339818101604052810190620000379190620000e8565b806000806101000a81548173ffffffffffffffffffffffffffffffffffffffff021916908373ffffffffffffffffffffffffffffffffffffffff160217905550506200011a565b600080fd5b600073ffffffffffffffffffffffffffffffffffffffff82169050919050565b6000620000b08262000083565b9050919050565b620000c281620000a3565b8114620000ce57600080fd5b50565b600081519050620000e281620000b7565b92915050565b6000602082840312156200010157620001006200007e565b5b60006200011184828501620000d1565b91505092915050565b611f80806200012a6000396000f3fe608060405234801561001057600080fd5b506004361061007d5760003560e01c80634724c40c1161005b5780634724c40c14610106578063b034012314610122578063b384abef14610140578063da35c6641461015c5761007d565b8063013cf08b1461008257806302d84bdd146100b65780633b4d01a7146100d2575b600080fd5b61009c60048036038101906100979190611079565b61017a565b6040516100ad959493929190611192565b60405180910390f35b6100d060048036038101906100cb919061122c565b6102fa565b005b6100ec60048036038101906100e79190611079565b610634565b6040516100fd9594939291906113c4565b60405180910390f35b610120600480360381019061011b9190611647565b61091b565b005b61012a610d2d565b604051610137919061174d565b60405180910390f35b61015a60048036038101906101559190611768565b610d51565b005b610164611029565b60405161017191906117b7565b60405180910390f35b60016020528060005260406000206000915090508060000160009054906101000a900473ffffffffffffffffffffffffffffffffffffffff16908060010180546101c390611801565b80601f01602080910402602001604051908101604052809291908181526020018280546101ef90611801565b801561023c5780601f106102115761010080835404028352916020019161023c565b820191906000526020600020905b81548152906001019060200180831161021f57829003601f168201915b50505050509080600201805461025190611801565b80601f016020809104026020016040519081016040528092919081815260200182805461027d90611801565b80156102ca5780601f1061029f576101008083540402835291602001916102ca565b820191906000526020600020905b8154815290600101906020018083116102ad57829003601f168201915b5050505050908060060160009054906101000a900460ff16908060060160019054906101000a900460ff16905085565b6001600083815260200190815260200160002060060160009054906101000a900460ff1661035d576040517f08c379a00000000000000000000000000000000000000000000000000000000081526004016103549061187e565b60405180910390fd5b7ffffffffffffffffffffffffffffffffffffffffffffffffffffffffffffffffb8160000b12158015610394575060058160000b13155b6103d3576040517f08c379a00000000000000000000000000000000000000000000000000000000081526004016103ca906118ea565b60405180910390fd5b60006001600084815260200190815260200160002090508060040160003373ffffffffffffffffffffffffffffffffffffffff1673ffffffffffffffffffffffffffffffffffffffff16815260200190815260200160002060009054906101000a900460ff16610478576040517f08c379a000000000000000000000000000000000000000000000000000000000815260040161046f90611956565b60405180910390fd5b60008160050160003373ffffffffffffffffffffffffffffffffffffffff1673ffffffffffffffffffffffffffffffffffffffff16815260200190815260200160002060009054906101000a900460000b60000b1461050c576040517f08c379a0000000000000000000000000000000000000000000000000000000008152600401610503906119c2565b60405180910390fd5b818160050160003373ffffffffffffffffffffffffffffffffffffffff1673ffffffffffffffffffffffffffffffffffffffff16815260200190815260200160002060006101000a81548160ff021916908360000b60ff16021790555060008054906101000a900473ffffffffffffffffffffffffffffffffffffffff1673ffffffffffffffffffffffffffffffffffffffff166330a80f07336040518263ffffffff1660e01b81526004016105c291906119e2565b600060405180830381600087803b1580156105dc57600080fd5b505af11580156105f0573d6000803e3d6000fd5b505050507f1b58851fec35e57d778c199afba0f927006ffc41403a5cfb52851fa53c26587083338460405161062793929190611a0c565b60405180910390a1505050565b6000606080600060606001600087815260200190815260200160002060060160009054906101000a900460ff166106a0576040517f08c379a00000000000000000000000000000000000000000000000000000000081526004016106979061187e565b60405180910390fd5b60006001600088815260200190815260200160002090508060000160009054906101000a900473ffffffffffffffffffffffffffffffffffffffff1681600101826002018360060160019054906101000a900460ff168460030183805461070690611801565b80601f016020809104026020016040519081016040528092919081815260200182805461073290611801565b801561077f5780601f106107545761010080835404028352916020019161077f565b820191906000526020600020905b81548152906001019060200180831161076257829003601f168201915b5050505050935082805461079290611801565b80601f01602080910402602001604051908101604052809291908181526020018280546107be90611801565b801561080b5780601f106107e05761010080835404028352916020019161080b565b820191906000526020600020905b8154815290600101906020018083116107ee57829003601f168201915b5050505050925080805480602002602001604051908101604052809291908181526020016000905b82821015610901578382906000526020600020906002020160405180604001604052908160008201805461086690611801565b80601f016020809104026020016040519081016040528092919081815260200182805461089290611801565b80156108df5780601f106108b4576101008083540402835291602001916108df565b820191906000526020600020905b8154815290600101906020018083116108c257829003601f168201915b5050505050815260200160018201548152505081526020019060010190610833565b505050509050955095509550955095505091939590929450565b60008151148061093b5750600281511015801561093a57506003815111155b5b61097a576040517f08c379a000000000000000000000000000000000000000000000000000000000815260040161097190611ab5565b60405180910390fd5b6002600081548092919061098d90611b04565b919050555060006001600060025481526020019081526020016000209050338160000160006101000a81548173ffffffffffffffffffffffffffffffffffffffff021916908373ffffffffffffffffffffffffffffffffffffffff160217905550838160010190816109ff9190611cee565b5082816002019081610a119190611cee565b5060018160060160006101000a81548160ff021916908315150217905550600082511115610afa5760018160060160016101000a81548160ff02191690831515021790555060005b8251811015610af457816003016040518060400160405280858481518110610a8457610a83611dc0565b5b60200260200101518152602001600081525090806001815401808255809150506001900390600052602060002090600202016000909190919091506000820151816000019081610ad49190611cee565b506020820151816001015550508080610aec90611b04565b915050610a59565b50610c4c565b60008160060160016101000a81548160ff0219169083151502179055508060030160405180604001604052806040518060400160405280600381526020017f59657300000000000000000000000000000000000000000000000000000000008152508152602001600081525090806001815401808255809150506001900390600052602060002090600202016000909190919091506000820151816000019081610ba49190611cee565b506020820151816001015550508060030160405180604001604052806040518060400160405280600281526020017f4e6f0000000000000000000000000000000000000000000000000000000000008152508152602001600081525090806001815401808255809150506001900390600052602060002090600202016000909190919091506000820151816000019081610c3e9190611cee565b506020820151816001015550505b60008054906101000a900473ffffffffffffffffffffffffffffffffffffffff1673ffffffffffffffffffffffffffffffffffffffff166347180441336040518263ffffffff1660e01b8152600401610ca591906119e2565b600060405180830381600087803b158015610cbf57600080fd5b505af1158015610cd3573d6000803e3d6000fd5b505050507f858151aa03c0b4c7da666b070628ac88b978482fd9c505d93c1a5becaf063d3960025433868460060160019054906101000a900460ff16604051610d1f9493929190611def565b60405180910390a150505050565b60008054906101000a900473ffffffffffffffffffffffffffffffffffffffff1681565b6001600083815260200190815260200160002060060160009054906101000a900460ff16610db4576040517f08c379a0000000000000000000000000000000000000000000000000000000008152600401610dab9061187e565b60405180910390fd5b6001600083815260200190815260200160002060040160003373ffffffffffffffffffffffffffffffffffffffff1673ffffffffffffffffffffffffffffffffffffffff16815260200190815260200160002060009054906101000a900460ff1615610e55576040517f08c379a0000000000000000000000000000000000000000000000000000000008152600401610e4c90611e87565b60405180910390fd5b60016000838152602001908152602001600020600301805490508110610eb0576040517f08c379a0000000000000000000000000000000000000000000000000000000008152600401610ea790611ef3565b60405180910390fd5b600060016000848152602001908152602001600020905060018160040160003373ffffffffffffffffffffffffffffffffffffffff1673ffffffffffffffffffffffffffffffffffffffff16815260200190815260200160002060006101000a81548160ff021916908315150217905550806003018281548110610f3757610f36611dc0565b5b90600052602060002090600202016001016000815480929190610f5990611b04565b919050555060008054906101000a900473ffffffffffffffffffffffffffffffffffffffff1673ffffffffffffffffffffffffffffffffffffffff1663a357bfd5336040518263ffffffff1660e01b8152600401610fb791906119e2565b600060405180830381600087803b158015610fd157600080fd5b505af1158015610fe5573d6000803e3d6000fd5b505050507f1abe610cf2bf87e57dcc1181fcf5ac0934e843d8344ab9eed6e86c799f62585e83338460405161101c93929190611f13565b60405180910390a1505050565b60025481565b6000604051905090565b600080fd5b600080fd5b6000819050919050565b61105681611043565b811461106157600080fd5b50565b6000813590506110738161104d565b92915050565b60006020828403121561108f5761108e611039565b5b600061109d84828501611064565b91505092915050565b600073ffffffffffffffffffffffffffffffffffffffff82169050919050565b60006110d1826110a6565b9050919050565b6110e1816110c6565b82525050565b600081519050919050565b600082825260208201905092915050565b60005b83811015611121578082015181840152602081019050611106565b60008484015250505050565b6000601f19601f8301169050919050565b6000611149826110e7565b61115381856110f2565b9350611163818560208601611103565b61116c8161112d565b840191505092915050565b60008115159050919050565b61118c81611177565b82525050565b600060a0820190506111a760008301886110d8565b81810360208301526111b9818761113e565b905081810360408301526111cd818661113e565b90506111dc6060830185611183565b6111e96080830184611183565b9695505050505050565b60008160000b9050919050565b611209816111f3565b811461121457600080fd5b50565b60008135905061122681611200565b92915050565b6000806040838503121561124357611242611039565b5b600061125185828601611064565b925050602061126285828601611217565b9150509250929050565b600081519050919050565b600082825260208201905092915050565b6000819050602082019050919050565b600082825260208201905092915050565b60006112b4826110e7565b6112be8185611298565b93506112ce818560208601611103565b6112d78161112d565b840191505092915050565b6112eb81611043565b82525050565b6000604083016000830151848203600086015261130e82826112a9565b915050602083015161132360208601826112e2565b508091505092915050565b600061133a83836112f1565b905092915050565b6000602082019050919050565b600061135a8261126c565b6113648185611277565b93508360208202850161137685611288565b8060005b858110156113b25784840389528151611393858261132e565b945061139e83611342565b925060208a0199505060018101905061137a565b50829750879550505050505092915050565b600060a0820190506113d960008301886110d8565b81810360208301526113eb818761113e565b905081810360408301526113ff818661113e565b905061140e6060830185611183565b8181036080830152611420818461134f565b90509695505050505050565b600080fd5b600080fd5b7f4e487b7100000000000000000000000000000000000000000000000000000000600052604160045260246000fd5b61146e8261112d565b810181811067ffffffffffffffff8211171561148d5761148c611436565b5b80604052505050565b60006114a061102f565b90506114ac8282611465565b919050565b600067ffffffffffffffff8211156114cc576114cb611436565b5b6114d58261112d565b9050602081019050919050565b82818337600083830152505050565b60006115046114ff846114b1565b611496565b9050828152602081018484840111156115205761151f611431565b5b61152b8482856114e2565b509392505050565b600082601f8301126115485761154761142c565b5b81356115588482602086016114f1565b91505092915050565b600067ffffffffffffffff82111561157c5761157b611436565b5b602082029050602081019050919050565b600080fd5b60006115a56115a084611561565b611496565b905080838252602082019050602084028301858111156115c8576115c761158d565b5b835b8181101561160f57803567ffffffffffffffff8111156115ed576115ec61142c565b5b8086016115fa8982611533565b855260208501945050506020810190506115ca565b5050509392505050565b600082601f83011261162e5761162d61142c565b5b813561163e848260208601611592565b91505092915050565b6000806000606084860312156116605761165f611039565b5b600084013567ffffffffffffffff81111561167e5761167d61103e565b5b61168a86828701611533565b935050602084013567ffffffffffffffff8111156116ab576116aa61103e565b5b6116b786828701611533565b925050604084013567ffffffffffffffff8111156116d8576116d761103e565b5b6116e486828701611619565b9150509250925092565b6000819050919050565b600061171361170e611709846110a6565b6116ee565b6110a6565b9050919050565b6000611725826116f8565b9050919050565b60006117378261171a565b9050919050565b6117478161172c565b82525050565b6000602082019050611762600083018461173e565b92915050565b6000806040838503121561177f5761177e611039565b5b600061178d85828601611064565b925050602061179e85828601611064565b9150509250929050565b6117b181611043565b82525050565b60006020820190506117cc60008301846117a8565b92915050565b7f4e487b7100000000000000000000000000000000000000000000000000000000600052602260045260246000fd5b6000600282049050600182168061181957607f821691505b60208210810361182c5761182b6117d2565b5b50919050565b7f50726f706f73616c20646f6573206e6f74206578697374000000000000000000600082015250565b60006118686017836110f2565b915061187382611832565b602082019050919050565b600060208201905081810360008301526118978161185b565b9050919050565b7f526174696e67206d757374206265206265747765656e202d3520616e64203500600082015250565b60006118d4601f836110f2565b91506118df8261189e565b602082019050919050565b60006020820190508181036000830152611903816118c7565b9050919050565b7f4d75737420766f7465206265666f7265206576616c756174696e670000000000600082015250565b6000611940601b836110f2565b915061194b8261190a565b602082019050919050565b6000602082019050818103600083015261196f81611933565b9050919050565b7f416c7265616479206576616c7561746564000000000000000000000000000000600082015250565b60006119ac6011836110f2565b91506119b782611976565b602082019050919050565b600060208201905081810360008301526119db8161199f565b9050919050565b60006020820190506119f760008301846110d8565b92915050565b611a06816111f3565b82525050565b6000606082019050611a2160008301866117a8565b611a2e60208301856110d8565b611a3b60408301846119fd565b949350505050565b7f437573746f6d20766f74696e67206d757374206861766520322d33206f70746960008201527f6f6e730000000000000000000000000000000000000000000000000000000000602082015250565b6000611a9f6023836110f2565b9150611aaa82611a43565b604082019050919050565b60006020820190508181036000830152611ace81611a92565b9050919050565b7f4e487b7100000000000000000000000000000000000000000000000000000000600052601160045260246000fd5b6000611b0f82611043565b91507fffffffffffffffffffffffffffffffffffffffffffffffffffffffffffffffff8203611b4157611b40611ad5565b5b600182019050919050565b60008190508160005260206000209050919050565b60006020601f8301049050919050565b600082821b905092915050565b600060088302611bae7fffffffffffffffffffffffffffffffffffffffffffffffffffffffffffffffff82611b71565b611bb88683611b71565b95508019841693508086168417925050509392505050565b6000611beb611be6611be184611043565b6116ee565b611043565b9050919050565b6000819050919050565b611c0583611bd0565b611c19611c1182611bf2565b848454611b7e565b825550505050565b600090565b611c2e611c21565b611c39818484611bfc565b505050565b5b81811015611c5d57611c52600082611c26565b600181019050611c3f565b5050565b601f821115611ca257611c7381611b4c565b611c7c84611b61565b81016020851015611c8b578190505b611c9f611c9785611b61565b830182611c3e565b50505b505050565b600082821c905092915050565b6000611cc560001984600802611ca7565b1980831691505092915050565b6000611cde8383611cb4565b9150826002028217905092915050565b611cf7826110e7565b67ffffffffffffffff811115611d1057611d0f611436565b5b611d1a8254611801565b611d25828285611c61565b600060209050601f831160018114611d585760008415611d46578287015190505b611d508582611cd2565b865550611db8565b601f198416611d6686611b4c565b60005b82811015611d8e57848901518255600182019150602085019450602081019050611d69565b86831015611dab5784890151611da7601f891682611cb4565b8355505b6001600288020188555050505b505050505050565b7f4e487b7100000000000000000000000000000000000000000000000000000000600052603260045260246000fd5b6000608082019050611e0460008301876117a8565b611e1160208301866110d8565b8181036040830152611e23818561113e565b9050611e326060830184611183565b95945050505050565b7f416c726561647920766f74656400000000000000000000000000000000000000600082015250565b6000611e71600d836110f2565b9150611e7c82611e3b565b602082019050919050565b60006020820190508181036000830152611ea081611e64565b9050919050565b7f496e76616c6964206f7074696f6e000000000000000000000000000000000000600082015250565b6000611edd600e836110f2565b9150611ee882611ea7565b602082019050919050565b60006020820190508181036000830152611f0c81611ed0565b9050919050565b6000606082019050611f2860008301866117a8565b611f3560208301856110d8565b611f4260408301846117a8565b94935050505056fea2646970667358221220a688efcf4a9da264212416bc89657250503998b4fee95865fec23894b75af74364736f6c63430008140033",
  "linkReferences": {},
  "deployedLinkReferences": {}
}