{
  "_format": "hh-sol-artifact-1",
  "contractName": "VotingSystem",
  "sourceName": "contracts/VotingSystem.sol",
  "abi": [
    {
      "inputs": [
        {
          "internalType": "address",
          "name": "_tokenAddress",
          "type": "address"
        }
      ],
      "stateMutability": "nonpayable",
      "type": "constructor"
    },
    {
      "anonymous": false,
      "inputs": [
        {
          "indexed": false,
          "internalType": "uint256",
          "name": "proposalId",
          "type": "uint256"
        },
        {
          "indexed": false,
          "internalType": "address",
          "name": "evaluator",
          "type": "address"
        },
        {
          "indexed": false,
          "internalType": "int8",
          "name": "rating",
          "type": "int8"
        }
      ],
      "name": "Evaluated",
      "type": "event"
    },
    {
      "anonymous": false,
      "inputs": [
        {
          "indexed": false,
          "internalType": "uint256",
          "name": "proposalId",
          "type": "uint256"
        },
        {
          "indexed": false,
          "internalType": "address",
          "name": "creator",
          "type": "address"
        },
        {
          "indexed": false,
          "internalType": "string",
          "name": "title",
          "type": "string"
        },
        {
          "indexed": false,
          "internalType": "bool",
          "name": "isCustomVoting",
          "type": "bool"
        }
      ],
      "name": "ProposalCreated",
      "type": "event"
    },
    {
      "anonymous": false,
      "inputs": [
        {
          "indexed": false,
          "internalType": "uint256",
          "name": "proposalId",
          "type": "uint256"
        },
        {
          "indexed": false,
          "internalType": "address",
          "name": "voter",
          "type": "address"
        },
        {
          "indexed": false,
          "internalType": "uint256",
          "name": "optionIndex",
          "type": "uint256"
        }
      ],
      "name": "Voted",
      "type": "event"
    },
    {
      "inputs": [
        {
          "internalType": "string",
          "name": "_title",
          "type": "string"
        },
        {
          "internalType": "string",
          "name": "_description",
          "type": "string"
        },
        {
          "internalType": "string[]",
          "name": "_options",
          "type": "string[]"
        }
      ],
      "name": "createProposal",
      "outputs": [],
      "stateMutability": "nonpayable",
      "type": "function"
    },
    {
      "inputs": [
        {
          "internalType": "uint256",
          "name": "_proposalId",
          "type": "uint256"
        },
        {
          "internalType": "int8",
          "name": "_rating",
          "type": "int8"
        }
      ],
      "name": "evaluateProposal",
      "outputs": [],
      "stateMutability": "nonpayable",
      "type": "function"
    },
    {
      "inputs": [
        {
          "internalType": "uint256",
          "name": "_proposalId",
          "type": "uint256"
        }
      ],
      "name": "getProposalDetails",
      "outputs": [
        {
          "internalType": "address",
          "name": "creator",
          "type": "address"
        },
        {
          "internalType": "string",
          "name": "title",
          "type": "string"
        },
        {
          "internalType": "string",
          "name": "description",
          "type": "string"
        },
        {
          "internalType": "bool",
          "name": "isCustomVoting",
          "type": "bool"
        },
        {
          "components": [
            {
              "internalType": "string",
              "name": "text",
              "type": "string"
            },
            {
              "internalType": "uint256",
              "name": "votes",
              "type": "uint256"
            }
          ],
          "internalType": "struct VotingSystem.Option[]",
          "name": "options",
          "type": "tuple[]"
        }
      ],
      "stateMutability": "view",
      "type": "function"
    },
    {
      "inputs": [],
      "name": "proposalCount",
      "outputs": [
        {
          "internalType": "uint256",
          "name": "",
          "type": "uint256"
        }
      ],
      "stateMutability": "view",
      "type": "function"
    },
    {
      "inputs": [
        {
          "internalType": "uint256",
          "name": "",
          "type": "uint256"
        }
      ],
      "name": "proposals",
      "outputs": [
        {
          "internalType": "address",
          "name": "creator",
          "type": "address"
        },
        {
          "internalType": "string",
          "name": "title",
          "type": "string"
        },
        {
          "internalType": "string",
          "name": "description",
          "type": "string"
        },
        {
          "internalType": "bool",
          "name": "exists",
          "type": "bool"
        },
        {
          "internalType": "bool",
          "name": "isCustomVoting",
          "type": "bool"
        }
      ],
      "stateMutability": "view",
      "type": "function"
    },
    {
      "inputs": [
        {
          "internalType": "uint256",
          "name": "_proposalId",
          "type": "uint256"
        },
        {
          "internalType": "uint256",
          "name": "_optionIndex",
          "type": "uint256"
        }
      ],
      "name": "vote",
      "outputs": [],
      "stateMutability": "nonpayable",
      "type": "function"
    },
    {
      "inputs": [],
      "name": "votingToken",
      "outputs": [
        {
          "internalType": "contract VotingToken",
          "name": "",
          "type": "address"
        }
      ],
      "stateMutability": "view",
      "type": "function"
    }
  ],
  "bytecode": "0x60806040523480156200001157600080fd5b506040516200276b3803806200276b8339818101604052810190620000379190620000e8565b806000806101000a81548173ffffffffffffffffffffffffffffffffffffffff021916908373ffffffffffffffffffffffffffffffffffffffff160217905550506200011a565b600080fd5b600073ffffffffffffffffffffffffffffffffffffffff82169050919050565b6000620000b08262000083565b9050919050565b620000c281620000a3565b8114620000ce57600080fd5b50565b600081519050620000e281620000b7565b92915050565b6000602082840312156200010157620001006200007e565b5b60006200011184828501620000d1565b91505092915050565b612641806200012a6000396000f3fe608060405234801561001057600080fd5b506004361061007d5760003560e01c80634724c40c1161005b5780634724c40c14610106578063b034012314610122578063b384abef14610140578063da35c6641461015c5761007d565b8063013cf08b1461008257806302d84bdd146100b65780633b4d01a7146100d2575b600080fd5b61009c60048036038101906100979190611682565b61017a565b6040516100ad95949392919061179b565b60405180910390f35b6100d060048036038101906100cb9190611835565b6102fa565b005b6100ec60048036038101906100e79190611682565b6106f3565b6040516100fd9594939291906119cd565b60405180910390f35b610120600480360381019061011b9190611c50565b6109da565b005b61012a611059565b6040516101379190611d56565b60405180910390f35b61015a60048036038101906101559190611d71565b61107d565b005b610164611411565b6040516101719190611dc0565b60405180910390f35b60016020528060005260406000206000915090508060000160009054906101000a900473ffffffffffffffffffffffffffffffffffffffff16908060010180546101c390611e0a565b80601f01602080910402602001604051908101604052809291908181526020018280546101ef90611e0a565b801561023c5780601f106102115761010080835404028352916020019161023c565b820191906000526020600020905b81548152906001019060200180831161021f57829003601f168201915b50505050509080600201805461025190611e0a565b80601f016020809104026020016040519081016040528092919081815260200182805461027d90611e0a565b80156102ca5780601f1061029f576101008083540402835291602001916102ca565b820191906000526020600020905b8154815290600101906020018083116102ad57829003601f168201915b5050505050908060060160009054906101000a900460ff16908060060160019054906101000a900460ff16905085565b6001600083815260200190815260200160002060060160009054906101000a900460ff1661035d576040517f08c379a000000000000000000000000000000000000000000000000000000000815260040161035490611e87565b60405180910390fd5b7ffffffffffffffffffffffffffffffffffffffffffffffffffffffffffffffffb8160000b12158015610394575060058160000b13155b6103d3576040517f08c379a00000000000000000000000000000000000000000000000000000000081526004016103ca90611ef3565b60405180910390fd5b6104126040518060400160405280601781526020017f4576616c756174696e672070726f706f73616c3a20257300000000000000000081525083611417565b6104546040518060400160405280600a81526020017f526174696e673a202573000000000000000000000000000000000000000000008152508260ff16611417565b60006001600084815260200190815260200160002090508060040160003373ffffffffffffffffffffffffffffffffffffffff1673ffffffffffffffffffffffffffffffffffffffff16815260200190815260200160002060009054906101000a900460ff166104f9576040517f08c379a00000000000000000000000000000000000000000000000000000000081526004016104f090611f5f565b60405180910390fd5b60008160050160003373ffffffffffffffffffffffffffffffffffffffff1673ffffffffffffffffffffffffffffffffffffffff16815260200190815260200160002060009054906101000a900460000b60000b1461058d576040517f08c379a000000000000000000000000000000000000000000000000000000000815260040161058490611fcb565b60405180910390fd5b818160050160003373ffffffffffffffffffffffffffffffffffffffff1673ffffffffffffffffffffffffffffffffffffffff16815260200190815260200160002060006101000a81548160ff021916908360000b60ff1602179055506106286040518060400160405280601c81526020017f4576616c756174696f6e2063617374207375636365737366756c6c79000000008152506114b3565b60008054906101000a900473ffffffffffffffffffffffffffffffffffffffff1673ffffffffffffffffffffffffffffffffffffffff166330a80f07336040518263ffffffff1660e01b81526004016106819190611feb565b600060405180830381600087803b15801561069b57600080fd5b505af11580156106af573d6000803e3d6000fd5b505050507f1b58851fec35e57d778c199afba0f927006ffc41403a5cfb52851fa53c2658708333846040516106e693929190612015565b60405180910390a1505050565b6000606080600060606001600087815260200190815260200160002060060160009054906101000a900460ff1661075f576040517f08c379a000000000000000000000000000000000000000000000000000000000815260040161075690611e87565b60405180910390fd5b60006001600088815260200190815260200160002090508060000160009054906101000a900473ffffffffffffffffffffffffffffffffffffffff1681600101826002018360060160019054906101000a900460ff16846003018380546107c590611e0a565b80601f01602080910402602001604051908101604052809291908181526020018280546107f190611e0a565b801561083e5780601f106108135761010080835404028352916020019161083e565b820191906000526020600020905b81548152906001019060200180831161082157829003601f168201915b5050505050935082805461085190611e0a565b80601f016020809104026020016040519081016040528092919081815260200182805461087d90611e0a565b80156108ca5780601f1061089f576101008083540402835291602001916108ca565b820191906000526020600020905b8154815290600101906020018083116108ad57829003601f168201915b5050505050925080805480602002602001604051908101604052809291908181526020016000905b828210156109c0578382906000526020600020906002020160405180604001604052908160008201805461092590611e0a565b80601f016020809104026020016040519081016040528092919081815260200182805461095190611e0a565b801561099e5780601f106109735761010080835404028352916020019161099e565b820191906000526020600020905b81548152906001019060200180831161098157829003601f168201915b50505050508152602001600182015481525050815260200190600101906108f2565b505050509050955095509550955095505091939590929450565b6000815114806109fa575060028151101580156109f957506003815111155b5b610a39576040517f08c379a0000000000000000000000000000000000000000000000000000000008152600401610a30906120be565b60405180910390fd5b60026000815480929190610a4c9061210d565b9190505550610a906040518060400160405280601481526020017f4372656174696e672070726f706f73616c2025730000000000000000000000008152508461154c565b610acf6040518060400160405280600f81526020017f4465736372697074696f6e3a20257300000000000000000000000000000000008152508361154c565b610b0f6040518060400160405280601581526020017f4e756d626572206f66206f7074696f6e733a20257300000000000000000000008152508251611417565b3360016000600254815260200190815260200160002060000160006101000a81548173ffffffffffffffffffffffffffffffffffffffff021916908373ffffffffffffffffffffffffffffffffffffffff160217905550826001600060025481526020019081526020016000206001019081610b8b91906122f7565b50816001600060025481526020019081526020016000206002019081610bb191906122f7565b506001806000600254815260200190815260200160002060060160006101000a81548160ff021916908315150217905550600081511115610d33576001806000600254815260200190815260200160002060060160016101000a81548160ff02191690831515021790555060005b8151811015610d2d57610c816040518060400160405280601181526020017f416464696e67206f7074696f6e3a202573000000000000000000000000000000815250838381518110610c7457610c736123c9565b5b602002602001015161154c565b60006040518060400160405280848481518110610ca157610ca06123c9565b5b60200260200101518152602001600081525090506001600060025481526020019081526020016000206003018190806001815401808255809150506001900390600052602060002090600202016000909190919091506000820151816000019081610d0c91906122f7565b50602082015181600101555050508080610d259061210d565b915050610c1f565b50610f0b565b610d716040518060400160405280601c81526020017f5573696e672064656661756c74205965732f4e6f206f7074696f6e73000000008152506114b3565b600060016000600254815260200190815260200160002060060160016101000a81548160ff021916908315150217905550600060405180604001604052806040518060400160405280600381526020017f5965730000000000000000000000000000000000000000000000000000000000815250815260200160008152509050600060405180604001604052806040518060400160405280600281526020017f4e6f0000000000000000000000000000000000000000000000000000000000008152508152602001600081525090506001600060025481526020019081526020016000206003018290806001815401808255809150506001900390600052602060002090600202016000909190919091506000820151816000019081610e9791906122f7565b506020820151816001015550506001600060025481526020019081526020016000206003018190806001815401808255809150506001900390600052602060002090600202016000909190919091506000820151816000019081610efb91906122f7565b5060208201518160010155505050505b610f656040518060400160405280601b81526020017f46696e616c206e756d626572206f66206f7074696f6e733a202573000000000081525060016000600254815260200190815260200160002060030180549050611417565b60008054906101000a900473ffffffffffffffffffffffffffffffffffffffff1673ffffffffffffffffffffffffffffffffffffffff166347180441336040518263ffffffff1660e01b8152600401610fbe9190611feb565b600060405180830381600087803b158015610fd857600080fd5b505af1158015610fec573d6000803e3d6000fd5b505050507f858151aa03c0b4c7da666b070628ac88b978482fd9c505d93c1a5becaf063d39600254338560016000600254815260200190815260200160002060060160019054906101000a900460ff1660405161104c94939291906123f8565b60405180910390a1505050565b60008054906101000a900473ffffffffffffffffffffffffffffffffffffffff1681565b6001600083815260200190815260200160002060060160009054906101000a900460ff166110e0576040517f08c379a00000000000000000000000000000000000000000000000000000000081526004016110d790611e87565b60405180910390fd5b6001600083815260200190815260200160002060040160003373ffffffffffffffffffffffffffffffffffffffff1673ffffffffffffffffffffffffffffffffffffffff16815260200190815260200160002060009054906101000a900460ff1615611181576040517f08c379a000000000000000000000000000000000000000000000000000000000815260040161117890612490565b60405180910390fd5b600160008381526020019081526020016000206003018054905081106111dc576040517f08c379a00000000000000000000000000000000000000000000000000000000081526004016111d3906124fc565b60405180910390fd5b61121b6040518060400160405280601681526020017f566f74696e67206f6e2070726f706f73616c3a2025730000000000000000000081525083611417565b61125a6040518060400160405280601081526020017f4f7074696f6e20696e6465783a2025730000000000000000000000000000000081525082611417565b600060016000848152602001908152602001600020905060018160040160003373ffffffffffffffffffffffffffffffffffffffff1673ffffffffffffffffffffffffffffffffffffffff16815260200190815260200160002060006101000a81548160ff0219169083151502179055508060030182815481106112e1576112e06123c9565b5b906000526020600020906002020160010160008154809291906113039061210d565b91905055506113466040518060400160405280601681526020017f566f74652063617374207375636365737366756c6c79000000000000000000008152506114b3565b60008054906101000a900473ffffffffffffffffffffffffffffffffffffffff1673ffffffffffffffffffffffffffffffffffffffff1663a357bfd5336040518263ffffffff1660e01b815260040161139f9190611feb565b600060405180830381600087803b1580156113b957600080fd5b505af11580156113cd573d6000803e3d6000fd5b505050507f1abe610cf2bf87e57dcc1181fcf5ac0934e843d8344ab9eed6e86c799f62585e8333846040516114049392919061251c565b60405180910390a1505050565b60025481565b6114af828260405160240161142d929190612553565b6040516020818303038152906040527fb60e72cc000000000000000000000000000000000000000000000000000000007bffffffffffffffffffffffffffffffffffffffffffffffffffffffff19166020820180517bffffffffffffffffffffffffffffffffffffffffffffffffffffffff83818316178352505050506115e8565b5050565b611549816040516024016114c79190612583565b6040516020818303038152906040527f41304fac000000000000000000000000000000000000000000000000000000007bffffffffffffffffffffffffffffffffffffffffffffffffffffffff19166020820180517bffffffffffffffffffffffffffffffffffffffffffffffffffffffff83818316178352505050506115e8565b50565b6115e482826040516024016115629291906125a5565b6040516020818303038152906040527f4b5c4277000000000000000000000000000000000000000000000000000000007bffffffffffffffffffffffffffffffffffffffffffffffffffffffff19166020820180517bffffffffffffffffffffffffffffffffffffffffffffffffffffffff83818316178352505050506115e8565b5050565b6115ff816115f7611602611623565b63ffffffff16565b50565b60006a636f6e736f6c652e6c6f679050600080835160208501845afa505050565b61162e819050919050565b6116366125dc565b565b6000604051905090565b600080fd5b600080fd5b6000819050919050565b61165f8161164c565b811461166a57600080fd5b50565b60008135905061167c81611656565b92915050565b60006020828403121561169857611697611642565b5b60006116a68482850161166d565b91505092915050565b600073ffffffffffffffffffffffffffffffffffffffff82169050919050565b60006116da826116af565b9050919050565b6116ea816116cf565b82525050565b600081519050919050565b600082825260208201905092915050565b60005b8381101561172a57808201518184015260208101905061170f565b60008484015250505050565b6000601f19601f8301169050919050565b6000611752826116f0565b61175c81856116fb565b935061176c81856020860161170c565b61177581611736565b840191505092915050565b60008115159050919050565b61179581611780565b82525050565b600060a0820190506117b060008301886116e1565b81810360208301526117c28187611747565b905081810360408301526117d68186611747565b90506117e5606083018561178c565b6117f2608083018461178c565b9695505050505050565b60008160000b9050919050565b611812816117fc565b811461181d57600080fd5b50565b60008135905061182f81611809565b92915050565b6000806040838503121561184c5761184b611642565b5b600061185a8582860161166d565b925050602061186b85828601611820565b9150509250929050565b600081519050919050565b600082825260208201905092915050565b6000819050602082019050919050565b600082825260208201905092915050565b60006118bd826116f0565b6118c781856118a1565b93506118d781856020860161170c565b6118e081611736565b840191505092915050565b6118f48161164c565b82525050565b6000604083016000830151848203600086015261191782826118b2565b915050602083015161192c60208601826118eb565b508091505092915050565b600061194383836118fa565b905092915050565b6000602082019050919050565b600061196382611875565b61196d8185611880565b93508360208202850161197f85611891565b8060005b858110156119bb578484038952815161199c8582611937565b94506119a78361194b565b925060208a01995050600181019050611983565b50829750879550505050505092915050565b600060a0820190506119e260008301886116e1565b81810360208301526119f48187611747565b90508181036040830152611a088186611747565b9050611a17606083018561178c565b8181036080830152611a298184611958565b90509695505050505050565b600080fd5b600080fd5b7f4e487b7100000000000000000000000000000000000000000000000000000000600052604160045260246000fd5b611a7782611736565b810181811067ffffffffffffffff82111715611a9657611a95611a3f565b5b80604052505050565b6000611aa9611638565b9050611ab58282611a6e565b919050565b600067ffffffffffffffff821115611ad557611ad4611a3f565b5b611ade82611736565b9050602081019050919050565b82818337600083830152505050565b6000611b0d611b0884611aba565b611a9f565b905082815260208101848484011115611b2957611b28611a3a565b5b611b34848285611aeb565b509392505050565b600082601f830112611b5157611b50611a35565b5b8135611b61848260208601611afa565b91505092915050565b600067ffffffffffffffff821115611b8557611b84611a3f565b5b602082029050602081019050919050565b600080fd5b6000611bae611ba984611b6a565b611a9f565b90508083825260208201905060208402830185811115611bd157611bd0611b96565b5b835b81811015611c1857803567ffffffffffffffff811115611bf657611bf5611a35565b5b808601611c038982611b3c565b85526020850194505050602081019050611bd3565b5050509392505050565b600082601f830112611c3757611c36611a35565b5b8135611c47848260208601611b9b565b91505092915050565b600080600060608486031215611c6957611c68611642565b5b600084013567ffffffffffffffff811115611c8757611c86611647565b5b611c9386828701611b3c565b935050602084013567ffffffffffffffff811115611cb457611cb3611647565b5b611cc086828701611b3c565b925050604084013567ffffffffffffffff811115611ce157611ce0611647565b5b611ced86828701611c22565b9150509250925092565b6000819050919050565b6000611d1c611d17611d12846116af565b611cf7565b6116af565b9050919050565b6000611d2e82611d01565b9050919050565b6000611d4082611d23565b9050919050565b611d5081611d35565b82525050565b6000602082019050611d6b6000830184611d47565b92915050565b60008060408385031215611d8857611d87611642565b5b6000611d968582860161166d565b9250506020611da78582860161166d565b9150509250929050565b611dba8161164c565b82525050565b6000602082019050611dd56000830184611db1565b92915050565b7f4e487b7100000000000000000000000000000000000000000000000000000000600052602260045260246000fd5b60006002820490506001821680611e2257607f821691505b602082108103611e3557611e34611ddb565b5b50919050565b7f50726f706f73616c20646f6573206e6f74206578697374000000000000000000600082015250565b6000611e716017836116fb565b9150611e7c82611e3b565b602082019050919050565b60006020820190508181036000830152611ea081611e64565b9050919050565b7f526174696e67206d757374206265206265747765656e202d3520616e64203500600082015250565b6000611edd601f836116fb565b9150611ee882611ea7565b602082019050919050565b60006020820190508181036000830152611f0c81611ed0565b9050919050565b7f4d75737420766f7465206265666f7265206576616c756174696e670000000000600082015250565b6000611f49601b836116fb565b9150611f5482611f13565b602082019050919050565b60006020820190508181036000830152611f7881611f3c565b9050919050565b7f416c7265616479206576616c7561746564000000000000000000000000000000600082015250565b6000611fb56011836116fb565b9150611fc082611f7f565b602082019050919050565b60006020820190508181036000830152611fe481611fa8565b9050919050565b600060208201905061200060008301846116e1565b92915050565b61200f816117fc565b82525050565b600060608201905061202a6000830186611db1565b61203760208301856116e1565b6120446040830184612006565b949350505050565b7f437573746f6d20766f74696e67206d757374206861766520322d33206f70746960008201527f6f6e730000000000000000000000000000000000000000000000000000000000602082015250565b60006120a86023836116fb565b91506120b38261204c565b604082019050919050565b600060208201905081810360008301526120d78161209b565b9050919050565b7f4e487b7100000000000000000000000000000000000000000000000000000000600052601160045260246000fd5b60006121188261164c565b91507fffffffffffffffffffffffffffffffffffffffffffffffffffffffffffffffff820361214a576121496120de565b5b600182019050919050565b60008190508160005260206000209050919050565b60006020601f8301049050919050565b600082821b905092915050565b6000600883026121b77fffffffffffffffffffffffffffffffffffffffffffffffffffffffffffffffff8261217a565b6121c1868361217a565b95508019841693508086168417925050509392505050565b60006121f46121ef6121ea8461164c565b611cf7565b61164c565b9050919050565b6000819050919050565b61220e836121d9565b61222261221a826121fb565b848454612187565b825550505050565b600090565b61223761222a565b612242818484612205565b505050565b5b818110156122665761225b60008261222f565b600181019050612248565b5050565b601f8211156122ab5761227c81612155565b6122858461216a565b81016020851015612294578190505b6122a86122a08561216a565b830182612247565b50505b505050565b600082821c905092915050565b60006122ce600019846008026122b0565b1980831691505092915050565b60006122e783836122bd565b9150826002028217905092915050565b612300826116f0565b67ffffffffffffffff81111561231957612318611a3f565b5b6123238254611e0a565b61232e82828561226a565b600060209050601f831160018114612361576000841561234f578287015190505b61235985826122db565b8655506123c1565b601f19841661236f86612155565b60005b8281101561239757848901518255600182019150602085019450602081019050612372565b868310156123b457848901516123b0601f8916826122bd565b8355505b6001600288020188555050505b505050505050565b7f4e487b7100000000000000000000000000000000000000000000000000000000600052603260045260246000fd5b600060808201905061240d6000830187611db1565b61241a60208301866116e1565b818103604083015261242c8185611747565b905061243b606083018461178c565b95945050505050565b7f416c726561647920766f74656400000000000000000000000000000000000000600082015250565b600061247a600d836116fb565b915061248582612444565b602082019050919050565b600060208201905081810360008301526124a98161246d565b9050919050565b7f496e76616c6964206f7074696f6e000000000000000000000000000000000000600082015250565b60006124e6600e836116fb565b91506124f1826124b0565b602082019050919050565b60006020820190508181036000830152612515816124d9565b9050919050565b60006060820190506125316000830186611db1565b61253e60208301856116e1565b61254b6040830184611db1565b949350505050565b6000604082019050818103600083015261256d8185611747565b905061257c6020830184611db1565b9392505050565b6000602082019050818103600083015261259d8184611747565b905092915050565b600060408201905081810360008301526125bf8185611747565b905081810360208301526125d38184611747565b90509392505050565b7f4e487b7100000000000000000000000000000000000000000000000000000000600052605160045260246000fdfea26469706673582212206916bf06f97dc5b7f952b11a6c608df190f03f57a51c8814269d9f478ce5f81264736f6c63430008140033",
  "linkReferences": {},
  "deployedLinkReferences": {}
}